:100000000C9434000C943E000C943E000C943E0082
:100010000C943E000C943E000C943E000C943E0068
:100020000C943E000C943E000C943E000C943E0058
:100030000C943E000C943E000C943E000C943E0048
:100040000C943E000C943E000C943E000C943E0038
:100050000C943E000C943E000C943E000C943E0028
:100060000C943E000C943E0011241FBECFEFD8E04C
:10007000DEBFCDBF0E9440000C946C000C940000C9
:100080008FEF84B917B881E086B94FEF309902C07D
:10009000309B4095442319F021E0280F02C02FEF38
:1000A000280F85E2289F912D1124822F891B869588
:1000B000890F86958695982F990F990F990F981B00
:1000C000291B822F21E030E0082E02C0220F331FAF
:0C00D0000A94E2F725B9DACFF894FFCFCC
:00000001FF
